:100000000C9434000C943E000C943E000C943E0082
:100010000C943E000C943E000C943E000C943E0068
:100020000C943E000C943E000C943E000C943E0058
:100030000C943E000C943E000C943E000C943E0048
:100040000C943E000C943E000C943E000C943E0038
:100050000C943E000C943E000C943E000C943E0028
:100060000C943E000C943E0011241FBECFEFD8E04C
:10007000DEBFCDBF0E9499010C949E010C9400003C
:1000800084B18C6284B92A9A8CB581658CBD08953F
:100090008CB58F7B8CBD84B1877D84B908958EBD6E
:1000A0000DB407FEFDCF8EB50895DF92EF92FF925B
:1000B0000F931F93CF93DF9300D000D0CDB7DEB75F
:1000C000D62EE42EF22E0E944F0089838D2D0E94A1
:1000D0004F008A838E2D0E944F008B838F2D0E94AC
:1000E0004F008C837E01E00EF11E012B21F0F70101
:1000F00080810E949201F70180810F900F900F90F4
:100100000F90DF91CF911F910F91FF90EF90DF90B3
:1001100008950F931F93219A85B185B92FEF89EF29
:1001200090E0215080409040E1F700C0000082E064
:1001300085B92FEF81EE94E0215080409040E1F7A7
:1001400000C0000015B82FEF89EF90E021508040EB
:100150009040E1F700C0000003E010E020E040E044
:1001600063E58CEA0E9455001F910F91089582E08B
:1001700085B982E90C9492010F931F9304E010E07B
:1001800020E040E060E080E30E94550020E041E094
:1001900060E080E30E94550020E042E060E080E300
:1001A0000E9455001F910F9108950F931F9300E037
:1001B00010E020E040E060E88CEA0E94550084E90D
:1001C0001F910F910C9492010F931F9304E010E084
:1001D00020E040E068E088E50E94550020E040E033
:1001E00060E080E50E9455001F910F9108950F93E4
:1001F0001F9304E010E020E040E060E088E50E940A
:1002000055001F910F9108950E947F010E944000A8
:100210000E948B01833999F038F4813969F0823971
:10022000B9F70E94B700F4CF853979F058F08639D4
:1002300079F70E94F700ECCF0E948900E9CF0E9475
:10024000BC00E6CF0E94D500E3CF0E94E400E0CFDF
:100250009F92AF92BF92CF92DF92EF92FF920F9355
:100260001F93CF93DF930E948B01C82E0E948B01B6
:10027000D12CDC2CCC24C82A0D2C000CEE08FF0855
:10028000A12CB12CC0E0C501A0E0B0E08C159D050B
:10029000AE05BF0538F59A2CDB2D04E010E020E018
:1002A0004A2D6B2D88E20E9455008F3F11F4CF5FDD
:1002B00002C0C111C1500E94920104E010E020E090
:1002C000492D6D2F80E20E9455008F3F11F4CF5FC2
:1002D00002C0C111C1500E9492018FEFA81AB80A42
:1002E000C83088F2DF91CF911F910F91FF90EF906E
:1002F000DF90CF90BF90AF909F900895089583E3D3
:100300008093C4001092C50086E08093C20088E10B
:100310008093C10008958091C00087FFFCCF809139
:10032000C60008959091C00095FFFCCF8093C60051
:1003300008950E94040180E090E00895F894FFCFB2
:00000001FF
