:100000000C9434000C943E000C943E000C943E0082
:100010000C943E000C943E000C943E000C943E0068
:100020000C943E000C943E000C943E000C943E0058
:100030000C943E000C943E000C943E000C943E0048
:100040000C943E000C943E000C943E000C943E0038
:100050000C943E000C943E000C943E000C943E0028
:100060000C943E000C943E0011241FBECFEFD8E04C
:10007000DEBFCDBF0E9457000C945C000C940000C2
:100080008FEF84B985B92FEF30E792E021503040EF
:100090009040E1F700C0000015B82FEF30E792E084
:1000A000215030409040E1F700C00000EBCF0E94AB
:0C00B000400080E090E00895F894FFCF3D
:00000001FF
